{
  "_format": "hh-sol-artifact-1",
  "contractName": "Diplomint",
  "sourceName": "contracts/Diplomint.sol",
  "abi": [
    {
      "inputs": [],
      "stateMutability": "nonpayable",
      "type": "constructor"
    },
    {
      "anonymous": false,
      "inputs": [
        {
          "indexed": true,
          "internalType": "address",
          "name": "owner",
          "type": "address"
        },
        {
          "indexed": true,
          "internalType": "address",
          "name": "approved",
          "type": "address"
        },
        {
          "indexed": true,
          "internalType": "uint256",
          "name": "tokenId",
          "type": "uint256"
        }
      ],
      "name": "Approval",
      "type": "event"
    },
    {
      "anonymous": false,
      "inputs": [
        {
          "indexed": true,
          "internalType": "address",
          "name": "owner",
          "type": "address"
        },
        {
          "indexed": true,
          "internalType": "address",
          "name": "operator",
          "type": "address"
        },
        {
          "indexed": false,
          "internalType": "bool",
          "name": "approved",
          "type": "bool"
        }
      ],
      "name": "ApprovalForAll",
      "type": "event"
    },
    {
      "anonymous": false,
      "inputs": [
        {
          "indexed": true,
          "internalType": "address",
          "name": "owner",
          "type": "address"
        },
        {
          "indexed": true,
          "internalType": "uint256",
          "name": "tokenId",
          "type": "uint256"
        }
      ],
      "name": "Mint",
      "type": "event"
    },
    {
      "anonymous": false,
      "inputs": [
        {
          "indexed": true,
          "internalType": "address",
          "name": "previousOwner",
          "type": "address"
        },
        {
          "indexed": true,
          "internalType": "address",
          "name": "newOwner",
          "type": "address"
        }
      ],
      "name": "OwnershipTransferred",
      "type": "event"
    },
    {
      "anonymous": false,
      "inputs": [
        {
          "indexed": true,
          "internalType": "address",
          "name": "from",
          "type": "address"
        },
        {
          "indexed": true,
          "internalType": "address",
          "name": "to",
          "type": "address"
        },
        {
          "indexed": true,
          "internalType": "uint256",
          "name": "tokenId",
          "type": "uint256"
        }
      ],
      "name": "Transfer",
      "type": "event"
    },
    {
      "inputs": [
        {
          "internalType": "address",
          "name": "_address",
          "type": "address"
        }
      ],
      "name": "addToWhitelist",
      "outputs": [],
      "stateMutability": "nonpayable",
      "type": "function"
    },
    {
      "inputs": [
        {
          "internalType": "address",
          "name": "to",
          "type": "address"
        },
        {
          "internalType": "uint256",
          "name": "tokenId",
          "type": "uint256"
        }
      ],
      "name": "approve",
      "outputs": [],
      "stateMutability": "nonpayable",
      "type": "function"
    },
    {
      "inputs": [
        {
          "internalType": "address",
          "name": "owner",
          "type": "address"
        }
      ],
      "name": "balanceOf",
      "outputs": [
        {
          "internalType": "uint256",
          "name": "",
          "type": "uint256"
        }
      ],
      "stateMutability": "view",
      "type": "function"
    },
    {
      "inputs": [
        {
          "internalType": "uint256",
          "name": "tokenId",
          "type": "uint256"
        }
      ],
      "name": "getApproved",
      "outputs": [
        {
          "internalType": "address",
          "name": "",
          "type": "address"
        }
      ],
      "stateMutability": "view",
      "type": "function"
    },
    {
      "inputs": [
        {
          "internalType": "uint256",
          "name": "tokenId",
          "type": "uint256"
        }
      ],
      "name": "getMetadata",
      "outputs": [
        {
          "components": [
            {
              "internalType": "string",
              "name": "sName",
              "type": "string"
            },
            {
              "internalType": "string",
              "name": "major",
              "type": "string"
            },
            {
              "internalType": "string",
              "name": "gradDate",
              "type": "string"
            },
            {
              "internalType": "string",
              "name": "college",
              "type": "string"
            }
          ],
          "internalType": "struct Diplomint.Metadata",
          "name": "",
          "type": "tuple"
        }
      ],
      "stateMutability": "view",
      "type": "function"
    },
    {
      "inputs": [
        {
          "internalType": "address",
          "name": "owner",
          "type": "address"
        },
        {
          "internalType": "address",
          "name": "operator",
          "type": "address"
        }
      ],
      "name": "isApprovedForAll",
      "outputs": [
        {
          "internalType": "bool",
          "name": "",
          "type": "bool"
        }
      ],
      "stateMutability": "view",
      "type": "function"
    },
    {
      "inputs": [
        {
          "internalType": "address",
          "name": "_address",
          "type": "address"
        }
      ],
      "name": "isWhitelisted",
      "outputs": [
        {
          "internalType": "bool",
          "name": "",
          "type": "bool"
        }
      ],
      "stateMutability": "view",
      "type": "function"
    },
    {
      "inputs": [
        {
          "internalType": "address",
          "name": "to",
          "type": "address"
        },
        {
          "internalType": "string",
          "name": "sName",
          "type": "string"
        },
        {
          "internalType": "string",
          "name": "major",
          "type": "string"
        },
        {
          "internalType": "string",
          "name": "gradDate",
          "type": "string"
        },
        {
          "internalType": "string",
          "name": "college",
          "type": "string"
        }
      ],
      "name": "mintWithMetadata",
      "outputs": [],
      "stateMutability": "nonpayable",
      "type": "function"
    },
    {
      "inputs": [],
      "name": "name",
      "outputs": [
        {
          "internalType": "string",
          "name": "",
          "type": "string"
        }
      ],
      "stateMutability": "view",
      "type": "function"
    },
    {
      "inputs": [],
      "name": "owner",
      "outputs": [
        {
          "internalType": "address",
          "name": "",
          "type": "address"
        }
      ],
      "stateMutability": "view",
      "type": "function"
    },
    {
      "inputs": [
        {
          "internalType": "uint256",
          "name": "tokenId",
          "type": "uint256"
        }
      ],
      "name": "ownerOf",
      "outputs": [
        {
          "internalType": "address",
          "name": "",
          "type": "address"
        }
      ],
      "stateMutability": "view",
      "type": "function"
    },
    {
      "inputs": [
        {
          "internalType": "address",
          "name": "_address",
          "type": "address"
        }
      ],
      "name": "removeFromWhitelist",
      "outputs": [],
      "stateMutability": "nonpayable",
      "type": "function"
    },
    {
      "inputs": [],
      "name": "renounceOwnership",
      "outputs": [],
      "stateMutability": "nonpayable",
      "type": "function"
    },
    {
      "inputs": [
        {
          "internalType": "address",
          "name": "from",
          "type": "address"
        },
        {
          "internalType": "address",
          "name": "to",
          "type": "address"
        },
        {
          "internalType": "uint256",
          "name": "tokenId",
          "type": "uint256"
        }
      ],
      "name": "safeTransferFrom",
      "outputs": [],
      "stateMutability": "nonpayable",
      "type": "function"
    },
    {
      "inputs": [
        {
          "internalType": "address",
          "name": "from",
          "type": "address"
        },
        {
          "internalType": "address",
          "name": "to",
          "type": "address"
        },
        {
          "internalType": "uint256",
          "name": "tokenId",
          "type": "uint256"
        },
        {
          "internalType": "bytes",
          "name": "_data",
          "type": "bytes"
        }
      ],
      "name": "safeTransferFrom",
      "outputs": [],
      "stateMutability": "nonpayable",
      "type": "function"
    },
    {
      "inputs": [
        {
          "internalType": "address",
          "name": "operator",
          "type": "address"
        },
        {
          "internalType": "bool",
          "name": "approved",
          "type": "bool"
        }
      ],
      "name": "setApprovalForAll",
      "outputs": [],
      "stateMutability": "nonpayable",
      "type": "function"
    },
    {
      "inputs": [
        {
          "internalType": "bytes4",
          "name": "interfaceId",
          "type": "bytes4"
        }
      ],
      "name": "supportsInterface",
      "outputs": [
        {
          "internalType": "bool",
          "name": "",
          "type": "bool"
        }
      ],
      "stateMutability": "view",
      "type": "function"
    },
    {
      "inputs": [],
      "name": "symbol",
      "outputs": [
        {
          "internalType": "string",
          "name": "",
          "type": "string"
        }
      ],
      "stateMutability": "view",
      "type": "function"
    },
    {
      "inputs": [
        {
          "internalType": "uint256",
          "name": "tokenId",
          "type": "uint256"
        }
      ],
      "name": "tokenURI",
      "outputs": [
        {
          "internalType": "string",
          "name": "",
          "type": "string"
        }
      ],
      "stateMutability": "view",
      "type": "function"
    },
    {
      "inputs": [
        {
          "internalType": "address",
          "name": "from",
          "type": "address"
        },
        {
          "internalType": "address",
          "name": "to",
          "type": "address"
        },
        {
          "internalType": "uint256",
          "name": "tokenId",
          "type": "uint256"
        }
      ],
      "name": "transferFrom",
      "outputs": [],
      "stateMutability": "nonpayable",
      "type": "function"
    },
    {
      "inputs": [
        {
          "internalType": "address",
          "name": "newOwner",
          "type": "address"
        }
      ],
      "name": "transferOwnership",
      "outputs": [],
      "stateMutability": "nonpayable",
      "type": "function"
    }
  ],
  "bytecode": "0x60806040523480156200001157600080fd5b506040518060400160405280600781526020017f4469706c6f6d61000000000000000000000000000000000000000000000000008152506040518060400160405280600581526020017f44504c4d4100000000000000000000000000000000000000000000000000000081525081600090816200008f9190620004ae565b508060019081620000a19190620004ae565b505050620000c4620000b86200013c60201b60201c565b6200014460201b60201c565b6009620000d66200020a60201b60201c565b9080600181540180825580915050600190039060005260206000200160009091909190916101000a81548173ffffffffffffffffffffffffffffffffffffffff021916908373ffffffffffffffffffffffffffffffffffffffff16021790555062000595565b600033905090565b6000600760009054906101000a900473ffffffffffffffffffffffffffffffffffffffff16905081600760006101000a81548173ffffffffffffffffffffffffffffffffffffffff021916908373ffffffffffffffffffffffffffffffffffffffff1602179055508173ffffffffffffffffffffffffffffffffffffffff168173ffffffffffffffffffffffffffffffffffffffff167f8be0079c531659141344cd1fd0a4f28419497f9722a3daafe3b4186f6b6457e060405160405180910390a35050565b6000600760009054906101000a900473ffffffffffffffffffffffffffffffffffffffff16905090565b600081519050919050565b7f4e487b7100000000000000000000000000000000000000000000000000000000600052604160045260246000fd5b7f4e487b7100000000000000000000000000000000000000000000000000000000600052602260045260246000fd5b60006002820490506001821680620002b657607f821691505b602082108103620002cc57620002cb6200026e565b5b50919050565b60008190508160005260206000209050919050565b60006020601f8301049050919050565b600082821b905092915050565b600060088302620003367fffffffffffffffffffffffffffffffffffffffffffffffffffffffffffffffff82620002f7565b620003428683620002f7565b95508019841693508086168417925050509392505050565b6000819050919050565b6000819050919050565b60006200038f6200038962000383846200035a565b62000364565b6200035a565b9050919050565b6000819050919050565b620003ab836200036e565b620003c3620003ba8262000396565b84845462000304565b825550505050565b600090565b620003da620003cb565b620003e7818484620003a0565b505050565b5b818110156200040f5762000403600082620003d0565b600181019050620003ed565b5050565b601f8211156200045e576200042881620002d2565b6200043384620002e7565b8101602085101562000443578190505b6200045b6200045285620002e7565b830182620003ec565b50505b505050565b600082821c905092915050565b6000620004836000198460080262000463565b1980831691505092915050565b60006200049e838362000470565b9150826002028217905092915050565b620004b98262000234565b67ffffffffffffffff811115620004d557620004d46200023f565b5b620004e182546200029d565b620004ee82828562000413565b600060209050601f83116001811462000526576000841562000511578287015190505b6200051d858262000490565b8655506200058d565b601f1984166200053686620002d2565b60005b82811015620005605784890151825560018201915060208501945060208101905062000539565b868310156200058057848901516200057c601f89168262000470565b8355505b6001600288020188555050505b505050505050565b61315280620005a56000396000f3fe608060405234801561001057600080fd5b50600436106101375760003560e01c8063715018a6116100b8578063a574cea41161007c578063a574cea414610338578063b88d4fde14610368578063c87b56dd14610384578063e43252d7146103b4578063e985e9c5146103d0578063f2fde38b1461040057610137565b8063715018a6146102ba5780638ab1d681146102c45780638da5cb5b146102e057806395d89b41146102fe578063a22cb4651461031c57610137565b80633af32abf116100ff5780633af32abf146101f257806342842e0e1461022257806362a236291461023e5780636352211e1461025a57806370a082311461028a57610137565b806301ffc9a71461013c57806306fdde031461016c578063081812fc1461018a578063095ea7b3146101ba57806323b872dd146101d6575b600080fd5b61015660048036038101906101519190611e4e565b61041c565b6040516101639190611e96565b60405180910390f35b6101746104fe565b6040516101819190611f41565b60405180910390f35b6101a4600480360381019061019f9190611f99565b610590565b6040516101b19190612007565b60405180910390f35b6101d460048036038101906101cf919061204e565b6105d6565b005b6101f060048036038101906101eb919061208e565b6106ed565b005b61020c600480360381019061020791906120e1565b6106f2565b6040516102199190611e96565b60405180910390f35b61023c6004803603810190610237919061208e565b6107a0565b005b61025860048036038101906102539190612243565b6107a5565b005b610274600480360381019061026f9190611f99565b610868565b6040516102819190612007565b60405180910390f35b6102a4600480360381019061029f91906120e1565b6108ee565b6040516102b1919061233d565b60405180910390f35b6102c26109a5565b005b6102de60048036038101906102d991906120e1565b6109b9565b005b6102e8610aa4565b6040516102f59190612007565b60405180910390f35b610306610ace565b6040516103139190611f41565b60405180910390f35b61033660048036038101906103319190612384565b610b60565b005b610352600480360381019061034d9190611f99565b610b76565b60405161035f9190612486565b60405180910390f35b610382600480360381019061037d9190612549565b610deb565b005b61039e60048036038101906103999190611f99565b610df1565b6040516103ab9190611f41565b60405180910390f35b6103ce60048036038101906103c991906120e1565b610e03565b005b6103ea60048036038101906103e591906125cc565b610f41565b6040516103f79190611e96565b60405180910390f35b61041a600480360381019061041591906120e1565b610fd5565b005b60007f80ac58cd000000000000000000000000000000000000000000000000000000007bffffffffffffffffffffffffffffffffffffffffffffffffffffffff1916827bffffffffffffffffffffffffffffffffffffffffffffffffffffffff191614806104e757507f5b5e139f000000000000000000000000000000000000000000000000000000007bffffffffffffffffffffffffffffffffffffffffffffffffffffffff1916827bffffffffffffffffffffffffffffffffffffffffffffffffffffffff1916145b806104f757506104f682611058565b5b9050919050565b60606000805461050d9061263b565b80601f01602080910402602001604051908101604052809291908181526020018280546105399061263b565b80156105865780601f1061055b57610100808354040283529160200191610586565b820191906000526020600020905b81548152906001019060200180831161056957829003601f168201915b5050505050905090565b600061059b826110c2565b6004600083815260200190815260200160002060009054906101000a900473ffffffffffffffffffffffffffffffffffffffff169050919050565b60006105e182610868565b90508073ffffffffffffffffffffffffffffffffffffffff168373ffffffffffffffffffffffffffffffffffffffff1603610651576040517f08c379a0000000000000000000000000000000000000000000000000000000008152600401610648906126de565b60405180910390fd5b8073ffffffffffffffffffffffffffffffffffffffff1661067061110d565b73ffffffffffffffffffffffffffffffffffffffff16148061069f575061069e8161069961110d565b610f41565b5b6106de576040517f08c379a00000000000000000000000000000000000000000000000000000000081526004016106d590612770565b60405180910390fd5b6106e88383611115565b505050565b505050565b600080600090505b600980549050811015610795578273ffffffffffffffffffffffffffffffffffffffff166009828154811061073257610731612790565b5b9060005260206000200160009054906101000a900473ffffffffffffffffffffffffffffffffffffffff1673ffffffffffffffffffffffffffffffffffffffff160361078257600191505061079b565b808061078d906127ee565b9150506106fa565b50600090505b919050565b505050565b6107ae336106f2565b6107ed576040517f08c379a00000000000000000000000000000000000000000000000000000000081526004016107e4906128a8565b60405180910390fd5b60006107f960086111ce565b905061080560086111dc565b61080f86826111f2565b61081c8186868686611210565b808673ffffffffffffffffffffffffffffffffffffffff167f0f6798a560793a54c3bcfe86a93cde1e73087d944c0ea20544137d412139688560405160405180910390a3505050505050565b600080610874836112ac565b9050600073ffffffffffffffffffffffffffffffffffffffff168173ffffffffffffffffffffffffffffffffffffffff16036108e5576040517f08c379a00000000000000000000000000000000000000000000000000000000081526004016108dc90612914565b60405180910390fd5b80915050919050565b60008073ffffffffffffffffffffffffffffffffffffffff168273ffffffffffffffffffffffffffffffffffffffff160361095e576040517f08c379a0000000000000000000000000000000000000000000000000000000008152600401610955906129a6565b60405180910390fd5b600360008373ffffffffffffffffffffffffffffffffffffffff1673ffffffffffffffffffffffffffffffffffffffff168152602001908152602001600020549050919050565b6109ad6112e9565b6109b76000611367565b565b6109c16112e9565b6000805b600980549050811015610a5e578273ffffffffffffffffffffffffffffffffffffffff16600982815481106109fd576109fc612790565b5b9060005260206000200160009054906101000a900473ffffffffffffffffffffffffffffffffffffffff1673ffffffffffffffffffffffffffffffffffffffff1603610a4b57809150610a5e565b8080610a56906127ee565b9150506109c5565b5060098181548110610a7357610a72612790565b5b9060005260206000200160006101000a81549073ffffffffffffffffffffffffffffffffffffffff02191690555050565b6000600760009054906101000a900473ffffffffffffffffffffffffffffffffffffffff16905090565b606060018054610add9061263b565b80601f0160208091040260200160405190810160405280929190818152602001828054610b099061263b565b8015610b565780601f10610b2b57610100808354040283529160200191610b56565b820191906000526020600020905b815481529060010190602001808311610b3957829003601f168201915b5050505050905090565b610b72610b6b61110d565b838361142d565b5050565b610b7e611dba565b600a6000838152602001908152602001600020604051806080016040529081600082018054610bac9061263b565b80601f0160208091040260200160405190810160405280929190818152602001828054610bd89061263b565b8015610c255780601f10610bfa57610100808354040283529160200191610c25565b820191906000526020600020905b815481529060010190602001808311610c0857829003601f168201915b50505050508152602001600182018054610c3e9061263b565b80601f0160208091040260200160405190810160405280929190818152602001828054610c6a9061263b565b8015610cb75780601f10610c8c57610100808354040283529160200191610cb7565b820191906000526020600020905b815481529060010190602001808311610c9a57829003601f168201915b50505050508152602001600282018054610cd09061263b565b80601f0160208091040260200160405190810160405280929190818152602001828054610cfc9061263b565b8015610d495780601f10610d1e57610100808354040283529160200191610d49565b820191906000526020600020905b815481529060010190602001808311610d2c57829003601f168201915b50505050508152602001600382018054610d629061263b565b80601f0160208091040260200160405190810160405280929190818152602001828054610d8e9061263b565b8015610ddb5780601f10610db057610100808354040283529160200191610ddb565b820191906000526020600020905b815481529060010190602001808311610dbe57829003601f168201915b5050505050815250509050919050565b50505050565b6060610dfc82611599565b9050919050565b610e0b6112e9565b60005b600980549050811015610eda578173ffffffffffffffffffffffffffffffffffffffff1660098281548110610e4657610e45612790565b5b9060005260206000200160009054906101000a900473ffffffffffffffffffffffffffffffffffffffff1673ffffffffffffffffffffffffffffffffffffffff1603610ec7576040517f08c379a0000000000000000000000000000000000000000000000000000000008152600401610ebe90612a38565b60405180910390fd5b8080610ed2906127ee565b915050610e0e565b506009819080600181540180825580915050600190039060005260206000200160009091909190916101000a81548173ffffffffffffffffffffffffffffffffffffffff021916908373ffffffffffffffffffffffffffffffffffffffff16021790555050565b6000600560008473ffffffffffffffffffffffffffffffffffffffff1673ffffffffffffffffffffffffffffffffffffffff16815260200190815260200160002060008373ffffffffffffffffffffffffffffffffffffffff1673ffffffffffffffffffffffffffffffffffffffff16815260200190815260200160002060009054906101000a900460ff16905092915050565b610fdd6112e9565b600073ffffffffffffffffffffffffffffffffffffffff168173ffffffffffffffffffffffffffffffffffffffff160361104c576040517f08c379a000000000000000000000000000000000000000000000000000000000815260040161104390612aca565b60405180910390fd5b61105581611367565b50565b60007f01ffc9a7000000000000000000000000000000000000000000000000000000007bffffffffffffffffffffffffffffffffffffffffffffffffffffffff1916827bffffffffffffffffffffffffffffffffffffffffffffffffffffffff1916149050919050565b6110cb816116ab565b61110a576040517f08c379a000000000000000000000000000000000000000000000000000000000815260040161110190612914565b60405180910390fd5b50565b600033905090565b816004600083815260200190815260200160002060006101000a81548173ffffffffffffffffffffffffffffffffffffffff021916908373ffffffffffffffffffffffffffffffffffffffff160217905550808273ffffffffffffffffffffffffffffffffffffffff1661118883610868565b73ffffffffffffffffffffffffffffffffffffffff167f8c5be1e5ebec7d5bd14f71427d1e84f3dd0314c0f7b2291e5b200ac8c7c3b92560405160405180910390a45050565b600081600001549050919050565b6001816000016000828254019250508190555050565b61120c8282604051806020016040528060008152506116ec565b5050565b6000604051806080016040528086815260200185815260200184815260200183815250905080600a6000888152602001908152602001600020600082015181600001908161125e9190612c96565b5060208201518160010190816112749190612c96565b50604082015181600201908161128a9190612c96565b5060608201518160030190816112a09190612c96565b50905050505050505050565b60006002600083815260200190815260200160002060009054906101000a900473ffffffffffffffffffffffffffffffffffffffff169050919050565b6112f161110d565b73ffffffffffffffffffffffffffffffffffffffff1661130f610aa4565b73ffffffffffffffffffffffffffffffffffffffff1614611365576040517f08c379a000000000000000000000000000000000000000000000000000000000815260040161135c90612db4565b60405180910390fd5b565b6000600760009054906101000a900473ffffffffffffffffffffffffffffffffffffffff16905081600760006101000a81548173ffffffffffffffffffffffffffffffffffffffff021916908373ffffffffffffffffffffffffffffffffffffffff1602179055508173ffffffffffffffffffffffffffffffffffffffff168173ffffffffffffffffffffffffffffffffffffffff167f8be0079c531659141344cd1fd0a4f28419497f9722a3daafe3b4186f6b6457e060405160405180910390a35050565b8173ffffffffffffffffffffffffffffffffffffffff168373ffffffffffffffffffffffffffffffffffffffff160361149b576040517f08c379a000000000000000000000000000000000000000000000000000000000815260040161149290612e20565b60405180910390fd5b80600560008573ffffffffffffffffffffffffffffffffffffffff1673ffffffffffffffffffffffffffffffffffffffff16815260200190815260200160002060008473ffffffffffffffffffffffffffffffffffffffff1673ffffffffffffffffffffffffffffffffffffffff16815260200190815260200160002060006101000a81548160ff0219169083151502179055508173ffffffffffffffffffffffffffffffffffffffff168373ffffffffffffffffffffffffffffffffffffffff167f17307eab39ab6107e8899845ad3d59bd9653f200f220920489ca2b5937696c318360405161158c9190611e96565b60405180910390a3505050565b60606115a4826110c2565b60006006600084815260200190815260200160002080546115c49061263b565b80601f01602080910402602001604051908101604052809291908181526020018280546115f09061263b565b801561163d5780601f106116125761010080835404028352916020019161163d565b820191906000526020600020905b81548152906001019060200180831161162057829003601f168201915b50505050509050600061164e611747565b905060008151036116635781925050506116a6565b600082511115611698578082604051602001611680929190612e7c565b604051602081830303815290604052925050506116a6565b6116a18461175e565b925050505b919050565b60008073ffffffffffffffffffffffffffffffffffffffff166116cd836112ac565b73ffffffffffffffffffffffffffffffffffffffff1614159050919050565b6116f683836117c6565b61170360008484846119e3565b611742576040517f08c379a000000000000000000000000000000000000000000000000000000000815260040161173990612f12565b60405180910390fd5b505050565b606060405180602001604052806000815250905090565b6060611769826110c2565b6000611773611747565b9050600081511161179357604051806020016040528060008152506117be565b8061179d84611b6a565b6040516020016117ae929190612e7c565b6040516020818303038152906040525b915050919050565b600073ffffffffffffffffffffffffffffffffffffffff168273ffffffffffffffffffffffffffffffffffffffff1603611835576040517f08c379a000000000000000000000000000000000000000000000000000000000815260040161182c90612f7e565b60405180910390fd5b61183e816116ab565b1561187e576040517f08c379a000000000000000000000000000000000000000000000000000000000815260040161187590612fea565b60405180910390fd5b61188c600083836001611c38565b611895816116ab565b156118d5576040517f08c379a00000000000000000000000000000000000000000000000000000000081526004016118cc90612fea565b60405180910390fd5b6001600360008473ffffffffffffffffffffffffffffffffffffffff1673ffffffffffffffffffffffffffffffffffffffff16815260200190815260200160002060008282540192505081905550816002600083815260200190815260200160002060006101000a81548173ffffffffffffffffffffffffffffffffffffffff021916908373ffffffffffffffffffffffffffffffffffffffff160217905550808273ffffffffffffffffffffffffffffffffffffffff16600073ffffffffffffffffffffffffffffffffffffffff167fddf252ad1be2c89b69c2b068fc378daa952ba7f163c4a11628f55a4df523b3ef60405160405180910390a46119df600083836001611c3e565b5050565b6000611a048473ffffffffffffffffffffffffffffffffffffffff16611c44565b15611b5d578373ffffffffffffffffffffffffffffffffffffffff1663150b7a02611a2d61110d565b8786866040518563ffffffff1660e01b8152600401611a4f949392919061305f565b6020604051808303816000875af1925050508015611a8b57506040513d601f19601f82011682018060405250810190611a8891906130c0565b60015b611b0d573d8060008114611abb576040519150601f19603f3d011682016040523d82523d6000602084013e611ac0565b606091505b506000815103611b05576040517f08c379a0000000000000000000000000000000000000000000000000000000008152600401611afc90612f12565b60405180910390fd5b805181602001fd5b63150b7a0260e01b7bffffffffffffffffffffffffffffffffffffffffffffffffffffffff1916817bffffffffffffffffffffffffffffffffffffffffffffffffffffffff191614915050611b62565b600190505b949350505050565b606060006001611b7984611c67565b01905060008167ffffffffffffffff811115611b9857611b97612118565b5b6040519080825280601f01601f191660200182016040528015611bca5781602001600182028036833780820191505090505b509050600082602001820190505b600115611c2d578080600190039150507f3031323334353637383961626364656600000000000000000000000000000000600a86061a8153600a8581611c2157611c206130ed565b5b04945060008503611bd8575b819350505050919050565b50505050565b50505050565b6000808273ffffffffffffffffffffffffffffffffffffffff163b119050919050565b600080600090507a184f03e93ff9f4daa797ed6e38ed64bf6a1f0100000000000000008310611cc5577a184f03e93ff9f4daa797ed6e38ed64bf6a1f0100000000000000008381611cbb57611cba6130ed565b5b0492506040810190505b6d04ee2d6d415b85acef81000000008310611d02576d04ee2d6d415b85acef81000000008381611cf857611cf76130ed565b5b0492506020810190505b662386f26fc100008310611d3157662386f26fc100008381611d2757611d266130ed565b5b0492506010810190505b6305f5e1008310611d5a576305f5e1008381611d5057611d4f6130ed565b5b0492506008810190505b6127108310611d7f576127108381611d7557611d746130ed565b5b0492506004810190505b60648310611da25760648381611d9857611d976130ed565b5b0492506002810190505b600a8310611db1576001810190505b80915050919050565b6040518060800160405280606081526020016060815260200160608152602001606081525090565b6000604051905090565b600080fd5b600080fd5b60007fffffffff0000000000000000000000000000000000000000000000000000000082169050919050565b611e2b81611df6565b8114611e3657600080fd5b50565b600081359050611e4881611e22565b92915050565b600060208284031215611e6457611e63611dec565b5b6000611e7284828501611e39565b91505092915050565b60008115159050919050565b611e9081611e7b565b82525050565b6000602082019050611eab6000830184611e87565b92915050565b600081519050919050565b600082825260208201905092915050565b60005b83811015611eeb578082015181840152602081019050611ed0565b60008484015250505050565b6000601f19601f8301169050919050565b6000611f1382611eb1565b611f1d8185611ebc565b9350611f2d818560208601611ecd565b611f3681611ef7565b840191505092915050565b60006020820190508181036000830152611f5b8184611f08565b905092915050565b6000819050919050565b611f7681611f63565b8114611f8157600080fd5b50565b600081359050611f9381611f6d565b92915050565b600060208284031215611faf57611fae611dec565b5b6000611fbd84828501611f84565b91505092915050565b600073ffffffffffffffffffffffffffffffffffffffff82169050919050565b6000611ff182611fc6565b9050919050565b61200181611fe6565b82525050565b600060208201905061201c6000830184611ff8565b92915050565b61202b81611fe6565b811461203657600080fd5b50565b60008135905061204881612022565b92915050565b6000806040838503121561206557612064611dec565b5b600061207385828601612039565b925050602061208485828601611f84565b9150509250929050565b6000806000606084860312156120a7576120a6611dec565b5b60006120b586828701612039565b93505060206120c686828701612039565b92505060406120d786828701611f84565b9150509250925092565b6000602082840312156120f7576120f6611dec565b5b600061210584828501612039565b91505092915050565b600080fd5b600080fd5b7f4e487b7100000000000000000000000000000000000000000000000000000000600052604160045260246000fd5b61215082611ef7565b810181811067ffffffffffffffff8211171561216f5761216e612118565b5b80604052505050565b6000612182611de2565b905061218e8282612147565b919050565b600067ffffffffffffffff8211156121ae576121ad612118565b5b6121b782611ef7565b9050602081019050919050565b82818337600083830152505050565b60006121e66121e184612193565b612178565b90508281526020810184848401111561220257612201612113565b5b61220d8482856121c4565b509392505050565b600082601f83011261222a5761222961210e565b5b813561223a8482602086016121d3565b91505092915050565b600080600080600060a0868803121561225f5761225e611dec565b5b600061226d88828901612039565b955050602086013567ffffffffffffffff81111561228e5761228d611df1565b5b61229a88828901612215565b945050604086013567ffffffffffffffff8111156122bb576122ba611df1565b5b6122c788828901612215565b935050606086013567ffffffffffffffff8111156122e8576122e7611df1565b5b6122f488828901612215565b925050608086013567ffffffffffffffff81111561231557612314611df1565b5b61232188828901612215565b9150509295509295909350565b61233781611f63565b82525050565b6000602082019050612352600083018461232e565b92915050565b61236181611e7b565b811461236c57600080fd5b50565b60008135905061237e81612358565b92915050565b6000806040838503121561239b5761239a611dec565b5b60006123a985828601612039565b92505060206123ba8582860161236f565b9150509250929050565b600082825260208201905092915050565b60006123e082611eb1565b6123ea81856123c4565b93506123fa818560208601611ecd565b61240381611ef7565b840191505092915050565b6000608083016000830151848203600086015261242b82826123d5565b9150506020830151848203602086015261244582826123d5565b9150506040830151848203604086015261245f82826123d5565b9150506060830151848203606086015261247982826123d5565b9150508091505092915050565b600060208201905081810360008301526124a0818461240e565b905092915050565b600067ffffffffffffffff8211156124c3576124c2612118565b5b6124cc82611ef7565b9050602081019050919050565b60006124ec6124e7846124a8565b612178565b90508281526020810184848401111561250857612507612113565b5b6125138482856121c4565b509392505050565b600082601f8301126125305761252f61210e565b5b81356125408482602086016124d9565b91505092915050565b6000806000806080858703121561256357612562611dec565b5b600061257187828801612039565b945050602061258287828801612039565b935050604061259387828801611f84565b925050606085013567ffffffffffffffff8111156125b4576125b3611df1565b5b6125c08782880161251b565b91505092959194509250565b600080604083850312156125e3576125e2611dec565b5b60006125f185828601612039565b925050602061260285828601612039565b9150509250929050565b7f4e487b7100000000000000000000000000000000000000000000000000000000600052602260045260246000fd5b6000600282049050600182168061265357607f821691505b6020821081036126665761266561260c565b5b50919050565b7f4552433732313a20617070726f76616c20746f2063757272656e74206f776e6560008201527f7200000000000000000000000000000000000000000000000000000000000000602082015250565b60006126c8602183611ebc565b91506126d38261266c565b604082019050919050565b600060208201905081810360008301526126f7816126bb565b9050919050565b7f4552433732313a20617070726f76652063616c6c6572206973206e6f7420746f60008201527f6b656e206f776e6572206f7220617070726f76656420666f7220616c6c000000602082015250565b600061275a603d83611ebc565b9150612765826126fe565b604082019050919050565b600060208201905081810360008301526127898161274d565b9050919050565b7f4e487b7100000000000000000000000000000000000000000000000000000000600052603260045260246000fd5b7f4e487b7100000000000000000000000000000000000000000000000000000000600052601160045260246000fd5b60006127f982611f63565b91507fffffffffffffffffffffffffffffffffffffffffffffffffffffffffffffffff820361282b5761282a6127bf565b5b600182019050919050565b7f4f7267616e697a6174696f6e20686173206e6f74206265656e20617070726f7660008201527f656420746f206d696e74206469706c6f6d617300000000000000000000000000602082015250565b6000612892603383611ebc565b915061289d82612836565b604082019050919050565b600060208201905081810360008301526128c181612885565b9050919050565b7f4552433732313a20696e76616c696420746f6b656e2049440000000000000000600082015250565b60006128fe601883611ebc565b9150612909826128c8565b602082019050919050565b6000602082019050818103600083015261292d816128f1565b9050919050565b7f4552433732313a2061646472657373207a65726f206973206e6f74206120766160008201527f6c6964206f776e65720000000000000000000000000000000000000000000000602082015250565b6000612990602983611ebc565b915061299b82612934565b604082019050919050565b600060208201905081810360008301526129bf81612983565b9050919050565b7f4164647265737320697320616c726561647920696e207468652077686974656c60008201527f6973740000000000000000000000000000000000000000000000000000000000602082015250565b6000612a22602383611ebc565b9150612a2d826129c6565b604082019050919050565b60006020820190508181036000830152612a5181612a15565b9050919050565b7f4f776e61626c653a206e6577206f776e657220697320746865207a65726f206160008201527f6464726573730000000000000000000000000000000000000000000000000000602082015250565b6000612ab4602683611ebc565b9150612abf82612a58565b604082019050919050565b60006020820190508181036000830152612ae381612aa7565b9050919050565b60008190508160005260206000209050919050565b60006020601f8301049050919050565b600082821b905092915050565b600060088302612b4c7fffffffffffffffffffffffffffffffffffffffffffffffffffffffffffffffff82612b0f565b612b568683612b0f565b95508019841693508086168417925050509392505050565b6000819050919050565b6000612b93612b8e612b8984611f63565b612b6e565b611f63565b9050919050565b6000819050919050565b612bad83612b78565b612bc1612bb982612b9a565b848454612b1c565b825550505050565b600090565b612bd6612bc9565b612be1818484612ba4565b505050565b5b81811015612c0557612bfa600082612bce565b600181019050612be7565b5050565b601f821115612c4a57612c1b81612aea565b612c2484612aff565b81016020851015612c33578190505b612c47612c3f85612aff565b830182612be6565b50505b505050565b600082821c905092915050565b6000612c6d60001984600802612c4f565b1980831691505092915050565b6000612c868383612c5c565b9150826002028217905092915050565b612c9f82611eb1565b67ffffffffffffffff811115612cb857612cb7612118565b5b612cc2825461263b565b612ccd828285612c09565b600060209050601f831160018114612d005760008415612cee578287015190505b612cf88582612c7a565b865550612d60565b601f198416612d0e86612aea565b60005b82811015612d3657848901518255600182019150602085019450602081019050612d11565b86831015612d535784890151612d4f601f891682612c5c565b8355505b6001600288020188555050505b505050505050565b7f4f776e61626c653a2063616c6c6572206973206e6f7420746865206f776e6572600082015250565b6000612d9e602083611ebc565b9150612da982612d68565b602082019050919050565b60006020820190508181036000830152612dcd81612d91565b9050919050565b7f4552433732313a20617070726f766520746f2063616c6c657200000000000000600082015250565b6000612e0a601983611ebc565b9150612e1582612dd4565b602082019050919050565b60006020820190508181036000830152612e3981612dfd565b9050919050565b600081905092915050565b6000612e5682611eb1565b612e608185612e40565b9350612e70818560208601611ecd565b80840191505092915050565b6000612e888285612e4b565b9150612e948284612e4b565b91508190509392505050565b7f4552433732313a207472616e7366657220746f206e6f6e20455243373231526560008201527f63656976657220696d706c656d656e7465720000000000000000000000000000602082015250565b6000612efc603283611ebc565b9150612f0782612ea0565b604082019050919050565b60006020820190508181036000830152612f2b81612eef565b9050919050565b7f4552433732313a206d696e7420746f20746865207a65726f2061646472657373600082015250565b6000612f68602083611ebc565b9150612f7382612f32565b602082019050919050565b60006020820190508181036000830152612f9781612f5b565b9050919050565b7f4552433732313a20746f6b656e20616c7265616479206d696e74656400000000600082015250565b6000612fd4601c83611ebc565b9150612fdf82612f9e565b602082019050919050565b6000602082019050818103600083015261300381612fc7565b9050919050565b600081519050919050565b600082825260208201905092915050565b60006130318261300a565b61303b8185613015565b935061304b818560208601611ecd565b61305481611ef7565b840191505092915050565b60006080820190506130746000830187611ff8565b6130816020830186611ff8565b61308e604083018561232e565b81810360608301526130a08184613026565b905095945050505050565b6000815190506130ba81611e22565b92915050565b6000602082840312156130d6576130d5611dec565b5b60006130e4848285016130ab565b91505092915050565b7f4e487b7100000000000000000000000000000000000000000000000000000000600052601260045260246000fdfea264697066735822122000316cedcd95eb512e34d03091d7d4c8dfa5a272ca97cbd95850f7ae0e2a1b4e64736f6c63430008120033",
  "linkReferences": {},
  "deployedLinkReferences": {}
}